S01300005350495F726563656976652E73726563E3
S11300000C9434000C943E000C943E000C943E007E
S11300100C943E000C943E000C943E000C943E0064
S11300200C943E000C943E000C943E000C943E0054
S11300300C943E000C943E000C943E000C943E0044
S11300400C943E000C944A000C943E000C943E0028
S11300500C943E000C943E000C943E000C943E0024
S11300600C943E000C943E0011241FBECFEFD8E048
S1130070DEBFCDBF0E9444000C9458000C940000D5
S1130080249A80EC8CBD08950E9440008FEF8AB9B9
S11300907894FFCF1F920F920FB60F9211248F9373
S11300A08EB58BB98F910F900FBE0F901F9018953E
S10700B0F894FFCFEE
S9030000FC
